:020000040000FA
:0400000081EF00F09C
:100008004E01360136013601400036014000360106
:100018003601360136013601360136013601360120
:1000280036014000400040003601360136013601F5
:100038003601360136014701030136013601360122
:1000480036013601360136014000400036013601DE
:1000580036013601360140003601360136013601D7
:1000680036013601360136013601360136013601D0
:1000780036013601360136014000360136013601B7
:1000880036013601360136013601360136013601B0
:100098003601360136013601400036014000400085
:1000A8003601360136013601360136013601360190
:1000B8003601360136013601360136013601360180
:1000C8003601360136013601360136013601360170
:1000D8003601360136013601360136013601360160
:1000E8004000360136013601400040004000400023
:1000F8003601360136013601FF00A4EF01F0808396
:1001080086898C8F9295989B9EA2A5A7AAADB0B31D
:10011800B6B9BCBEC1C4C6C9CBCED0D3D5D7DADC3C
:10012800DEE0E2E4E6E8EAEBEDEEF0F1F3F4F5F612
:10013800F8F9FAFAFBFCFDFDFEFEFEFFFFFFFFFFEC
:10014800FFFFFEFEFEFDFDFCFBFAFAF9F8F6F5F4FA
:10015800F3F1F0EEEDEBEAE8E6E4E2E0DEDCDAD734
:10016800D5D3D0CECBC9C6C4C1BEBCB9B6B3B0AD69
:10017800AAA7A5A29E9B9895928F8C898683807C3E
:10018800797673706D6A6764615D5A5855524F4C41
:10019800494643413E3B393634312F2C2A28252302
:1001A800211F1D1B1917151412110F0E0C0B0A090C
:1001B8000706050504030202010101000000000012
:1001C80000000101010202030405050607090A0BE4
:1001D8000C0E0F1112141517191B1D1F212325288A
:1001E8002A2C2F313436393B3E414346494C4F5235
:1001F80055585A5D6164676A6D707376797C21EE33
:100208004CF211EEACF1490EDBC4E3F4E806FCE273
:1002180021EE00F211EE60F14B0EDBC4E3F4E806C8
:10022800FCE20501F851020D600EF324D96E050EAB
:10023800F420DA6EF651DE1807E1F751DE18D8A47B
:1002480028EF01F02AEF01F056EF01F0000EF76FEA
:10025800000EF66F250EF819D8A435EF01F037EF28
:1002680001F038EF01F0F869F8C517F5186A17BEFC
:100278001806D89017361836020E1726000E1822C0
:10028800AC0E1724D96E050E1820DA6E610078F3CB
:1002980012F5610074F313F5010E146EDBEC01F036
:1002A8000501F82BF64BF72B120000013200000174
:1002B80032000001320000084B000001320000014A
:1002C80032000001320000044B000001320000013E
:1002D800320000044B00000132000002320000042A
:1002E8004B0000013200000232000002320000021E
:1002F80032000004DC052D000000240000002D0061
:1003080000002F0000002D000000240000002F0036
:100318000000350000002D000000350000003C0002
:10032800000035000000240000002800000035000F
:10033800000024000000280000002D000000350007
:10034800060EF66E010EF76E000EF86E01EE00F363
:1003580010EE00F10900F5C4EEF4E550E150FAE1C1
:10036800E250F8E1B20EF66E020EF76E000EF86E6D
:1003780001EE00F210EE96F00900F5C4EEF4E55037
:10038800E150FAE10501F96BF86BF76BF66B01EEDA
:1003980001F1100EEE6AE806FDE10401080E5D6F3A
:1003A800000E5E6F000E5F6F00013DEF02F003016B
:1003B8001E91800E135CD8A0E4EF01F0E6EF01F087
:1003C800E9EF01F07F0E136E1268121C156E131CF4
:1003D800166E1650106E15C50FF5610040F41DF32A
:1003E80061003CF41CF30E901450D8B4FEEF01F0F9
:1003F80000EF02F001EF02F00E80B198A1881E8193
:020408001200E0
:10040C00610040F41DF361003CF41CF3040E0D2656
:10041C00000E0D24D96EDA6A070EDA22DF500001C5
:10042C007D6FB1980EB01DEF02F01FEF02F022EFBE
:10043C0002F0A19803011E911100000E096E000E2E
:10044C000A6E000E0B6E000E0C6E000E056E000E8A
:10045C00066E000E076E000E086E7D0E0301236FF4
:10046C00010E266FB196F00E246FA18612000501C5
:10047C00F98F9EEC02F079EC02F098EC02F023EC90
:10048C0002F055EC02F00501F99F03EC01F0BE9E61
:10049C0084EC02F0BE8E4BEF02F081EF00F0C00E48
:1004AC00BE16900E03011A6F540E1B6F000E1F6FB9
:1004BC00010E216F310E1E6F000E136E100E126E98
:0A04CC00010E146EDBEC01F01200CB
:1004D800610060F311F5010E0126000E02220322CD
:1004E8000422610044F4D8F41100000E0401006FE6
:1004F800000EC66EA00E00017F6F000E7D6F120009
:100508000501F98DF9BD8BEF02F08DEF02F086EF52
:1005180002F01200B1960501F99D010E0926000EA0
:100528000A220B220C221100D68AD68ED68C1200F3
:06053800AE90110012005C
:020000040020DA
:10000000FF0FFF0FFF0FFF0FFF0FFF0FFF0FFF0F80
:10001000FF0FFF0FFF0FFF0FFF0FFF0FFF0FFF0F70
:020000040030CA
:0A0000008CFEFFFC9FFFFFFFFFFFD7
:00000001FF
